:100000000C942A000C9480010C9447000C94470037
:100010000C9447000C9447000C9447000C94470044
:100020000C9447000C9447000C9447000C94470034
:100030000C9447000C9447000C9447000C94470024
:100040000C9447000C9447000C9447000C94470014
:100050000C94470011241FBECFE5D8E0DEBFCDBF12
:1000600010E0A0E6B0E0E6ECF6E002C005900D92EC
:10007000AC36B107D9F720E0ACE6B0E001C01D9284
:10008000A137B207E1F70E94AA010C9461030C9416
:10009000000085B7826085BF85B78E7F85BF8BB72F
:1000A00080648BBF789460E081E40E949B0161E0F2
:1000B00081E40E949B0162E081E40E949B0160E078
:1000C00082E40E949B0161E082E40E949B0162E065
:1000D00082E40E949B0160E081E40E94A30161E050
:1000E00081E40E94A30162E081E40E94A30160E038
:1000F00082E40E94A30161E082E40E94A30162E025
:1001000082E40E94A30162E084E40E9497010895C2
:10011000CF93DF9300D000D01F92CDB7DEB785E03C
:10012000E6E6F0E0DE01119601900D928A95E1F786
:1001300049815A816B817C818D810E944803E091C5
:100140006F00F0917000E05AFF4F608181E40E94DF
:100150009F016091640082E40E949F0180916D0084
:1001600090916E00892B21F060E082E40E949F0153
:1001700049815A816B817C818D810E94D80210E077
:1001800025C00E943503811104C080916C00882332
:10019000C1F31F5F8A819B8182BF88B7816088BF5E
:1001A000E0916F00F0917000E05AFF4F6081613084
:1001B00019F481E40E94A7016091640070916500C8
:1001C0006130710519F482E40E94A701143121F015
:1001D00080916C008823A9F20E943103E0916F00A6
:1001E000F0917000E05AFF4F608181E40E94A3010A
:1001F0006091640082E40E94A30180916D0090915F
:100200006E00892B21F060E082E40E94A3018091BE
:100210006C00811143C080916F0090917000019635
:1002200083709078992324F401978C6F9F6F0196C7
:100230009093700080936F008091640090916500AE
:10024000009789F420916D0030916E00232B59F4B2
:1002500081E090E0909365008093640090936E003D
:1002600080936D004AC08130910589F420916D0022
:1002700030916E00232B59F082E090E0909365005E
:100280008093640010926E0010926D0036C001974A
:10029000A1F510926500109264002FC080916F004C
:1002A00090917000009759F481E090E09093700075
:1002B00080936F0090936500809364001EC0FC01E2
:1002C000E05AFF4F2081213091F420916400309159
:1002D00065002230310559F481E090E0909365008B
:1002E000809364009093700080936F0006C0029723
:1002F00021F4109265001092640010926C001FCFE0
:100300001F920F920FB60F9211248F939F9380919B
:10031000640090916500029719F481E080936C006D
:100320009F918F910F900FBE0F901F90189540E0F6
:100330000E94B101089541E00E94B101089541E099
:100340000E942902089540E00E94290208950E9417
:10035000A10208950E9449000E94880080E090E078
:100360000895823429F118F4813439F008958334E2
:10037000D1F1843409F452C00895413059F42AB3BC
:1003800081E090E002C0880F991F6A95E2F7822B06
:100390008ABB089541115CC02AB381E090E002C09D
:1003A000880F991F6A95E2F7809582238ABB08958A
:1003B000413059F427B381E090E002C0880F991FC3
:1003C0006A95E2F7822B87BB0895411141C027B39C
:1003D00081E090E002C0880F991F6A95E2F780954E
:1003E000822387BB0895413059F424B381E090E023
:1003F00002C0880F991F6A95E2F7822B84BB08958B
:10040000411126C024B381E090E002C0880F991FFB
:100410006A95E2F78095822384BB0895413059F4B0
:1004200021B381E090E002C0880F991F6A95E2F73E
:10043000822B81BB089541110BC021B381E090E074
:1004400002C0880F991F6A95E2F78095822381BBCD
:100450000895823429F118F4813439F008958334F1
:10046000D1F1843409F452C00895413059F42BB3CA
:1004700081E090E002C0880F991F6A95E2F7822B15
:100480008BBB089541115CC02BB381E090E002C0AA
:10049000880F991F6A95E2F7809582238BBB089598
:1004A000413059F428B381E090E002C0880F991FD1
:1004B0006A95E2F7822B88BB0895411141C028B3A9
:1004C00081E090E002C0880F991F6A95E2F780955D
:1004D000822388BB0895413059F425B381E090E030
:1004E00002C0880F991F6A95E2F7822B85BB089599
:1004F000411126C025B381E090E002C0880F991F0A
:100500006A95E2F78095822385BB0895413059F4BE
:1005100022B381E090E002C0880F991F6A95E2F74C
:10052000822B82BB089541110BC022B381E090E081
:1005300002C0880F991F6A95E2F78095822382BBDB
:1005400008958234A1F018F4813431F00895833491
:10055000C9F0843411F108952BB381E090E002C01A
:10056000880F991F6A95E2F782278BBB089528B3FD
:1005700081E090E002C0880F991F6A95E2F7822718
:1005800088BB089525B381E090E002C0880F991FD1
:100590006A95E2F7822785BB089522B381E090E057
:1005A00002C0880F991F6A95E2F7822782BB0895DF
:1005B000CF93DF9300D000D01F92CDB7DEB7498331
:1005C0005A836B837C838D838C819D8180349105DC
:1005D00019F130F48130910559F0089799F039C03C
:1005E000811521E0920711F18115944049F131C044
:1005F00083B7816083BF83B78D7F83BF83B78B7FD2
:1006000083BF27C083B78E7F83BF83B7826083BFDA
:1006100083B78B7F83BF1DC083B7816083BF83B7E0
:10062000826083BF83B78B7F83BF13C083B78E7F06
:1006300083BF83B78D7F83BF83B7846083BF09C0C7
:1006400083B7816083BF83B78D7F83BF83B78460A7
:1006500083BF0F900F900F900F900F90DF91CF916D
:10066000089583B7887F83BF089588B78170089500
:10067000CF93DF9300D0CDB7DEB79C0122273A831A
:1006800029839DBD8CBD0F900F90DF91CF91089570
:10069000CF93DF9300D000D01F92CDB7DEB75A833F
:1006A0006B83411102C01FBC1EBC8A819B810E94CA
:1006B00038030F900F900F900F900F90DF91CF9114
:0606C0000895F894FFCF3D
:0C06C600000102010200000B0000040013
:00000001FF
